{
  "contractName": "Election",
  "abi": [
    {
      "inputs": [],
      "stateMutability": "nonpayable",
      "type": "constructor"
    },
    {
      "anonymous": false,
      "inputs": [
        {
          "indexed": true,
          "internalType": "uint256",
          "name": "candidateId",
          "type": "uint256"
        }
      ],
      "name": "votedEvent",
      "type": "event"
    },
    {
      "inputs": [
        {
          "internalType": "uint256",
          "name": "",
          "type": "uint256"
        }
      ],
      "name": "candidates",
      "outputs": [
        {
          "internalType": "uint256",
          "name": "id",
          "type": "uint256"
        },
        {
          "internalType": "string",
          "name": "CfirstName",
          "type": "string"
        },
        {
          "internalType": "string",
          "name": "ClastName",
          "type": "string"
        },
        {
          "internalType": "string",
          "name": "CidNumber",
          "type": "string"
        },
        {
          "internalType": "uint256",
          "name": "voteCount",
          "type": "uint256"
        }
      ],
      "stateMutability": "view",
      "type": "function",
      "constant": true
    },
    {
      "inputs": [],
      "name": "candidatesCount",
      "outputs": [
        {
          "internalType": "uint256",
          "name": "",
          "type": "uint256"
        }
      ],
      "stateMutability": "view",
      "type": "function",
      "constant": true
    },
    {
      "inputs": [],
      "name": "manager",
      "outputs": [
        {
          "internalType": "address",
          "name": "",
          "type": "address"
        }
      ],
      "stateMutability": "view",
      "type": "function",
      "constant": true
    },
    {
      "inputs": [
        {
          "internalType": "uint256",
          "name": "",
          "type": "uint256"
        }
      ],
      "name": "users",
      "outputs": [
        {
          "internalType": "string",
          "name": "firstName",
          "type": "string"
        },
        {
          "internalType": "string",
          "name": "lastName",
          "type": "string"
        },
        {
          "internalType": "string",
          "name": "idNumber",
          "type": "string"
        },
        {
          "internalType": "string",
          "name": "email",
          "type": "string"
        },
        {
          "internalType": "string",
          "name": "password",
          "type": "string"
        },
        {
          "internalType": "address",
          "name": "add",
          "type": "address"
        }
      ],
      "stateMutability": "view",
      "type": "function",
      "constant": true
    },
    {
      "inputs": [],
      "name": "usersCount",
      "outputs": [
        {
          "internalType": "uint256",
          "name": "",
          "type": "uint256"
        }
      ],
      "stateMutability": "view",
      "type": "function",
      "constant": true
    },
    {
      "inputs": [
        {
          "internalType": "address",
          "name": "",
          "type": "address"
        }
      ],
      "name": "voters",
      "outputs": [
        {
          "internalType": "bool",
          "name": "",
          "type": "bool"
        }
      ],
      "stateMutability": "view",
      "type": "function",
      "constant": true
    },
    {
      "inputs": [
        {
          "internalType": "string",
          "name": "_CfirstName",
          "type": "string"
        },
        {
          "internalType": "string",
          "name": "_ClastName",
          "type": "string"
        },
        {
          "internalType": "string",
          "name": "_CidNumber",
          "type": "string"
        }
      ],
      "name": "addCandidate",
      "outputs": [],
      "stateMutability": "nonpayable",
      "type": "function"
    },
    {
      "inputs": [
        {
          "internalType": "uint256",
          "name": "_candidateId",
          "type": "uint256"
        }
      ],
      "name": "vote",
      "outputs": [],
      "stateMutability": "nonpayable",
      "type": "function"
    },
    {
      "inputs": [
        {
          "internalType": "string",
          "name": "_firstName",
          "type": "string"
        },
        {
          "internalType": "string",
          "name": "_lastName",
          "type": "string"
        },
        {
          "internalType": "string",
          "name": "_idNumber",
          "type": "string"
        },
        {
          "internalType": "string",
          "name": "_email",
          "type": "string"
        },
        {
          "internalType": "string",
          "name": "_password",
          "type": "string"
        }
      ],
      "name": "addUser",
      "outputs": [],
      "stateMutability": "nonpayable",
      "type": "function"
    }
  ],
  "bytecode": "0x608060405234801561001057600080fd5b50336000806101000a81548173ffffffffffffffffffffffffffffffffffffffff021916908373ffffffffffffffffffffffffffffffffffffffff1602179055506115ea806100606000396000f3fe608060405234801561001057600080fd5b50600436106100935760003560e01c8063481c6a7511610066578063481c6a751461013b5780636ba13a8214610159578063a3ec138d14610177578063ad71f8dc146101a7578063b37a3d82146101c357610093565b80630121b93f146100985780632d35a8a2146100b45780633477ee2e146100d2578063365b98b214610106575b600080fd5b6100b260048036038101906100ad9190610b54565b6101df565b005b6100bc610376565b6040516100c99190610b90565b60405180910390f35b6100ec60048036038101906100e79190610b54565b61037c565b6040516100fd959493929190610c3b565b60405180910390f35b610120600480360381019061011b9190610b54565b61054a565b60405161013296959493929190610ce4565b60405180910390f35b61014361084e565b6040516101509190610d68565b60405180910390f35b610161610872565b60405161016e9190610b90565b60405180910390f35b610191600480360381019061018c9190610daf565b610878565b60405161019e9190610df7565b60405180910390f35b6101c160048036038101906101bc9190610f47565b610898565b005b6101dd60048036038101906101d89190610fee565b6109db565b005b600160003373ffffffffffffffffffffffffffffffffffffffff1673ffffffffffffffffffffffffffffffffffffffff16815260200190815260200160002060009054906101000a900460ff161561026c576040517f08c379a000000000000000000000000000000000000000000000000000000000815260040161026390611141565b60405180910390fd5b60008111801561027e57506003548111155b6102bd576040517f08c379a00000000000000000000000000000000000000000000000000000000081526004016102b4906111ad565b60405180910390fd5b60018060003373ffffffffffffffffffffffffffffffffffffffff1673ffffffffffffffffffffffffffffffffffffffff16815260200190815260200160002060006101000a81548160ff02191690831515021790555060026000828152602001908152602001600020600401600081548092919061033b906111fc565b91905055506000819050817ffff3c900d938d21d0990d786e819f29b8d05c1ef587b462b939609625b684b1660405160405180910390a25050565b60035481565b60026020528060005260406000206000915090508060000154908060010180546103a590611273565b80601f01602080910402602001604051908101604052809291908181526020018280546103d190611273565b801561041e5780601f106103f35761010080835404028352916020019161041e565b820191906000526020600020905b81548152906001019060200180831161040157829003601f168201915b50505050509080600201805461043390611273565b80601f016020809104026020016040519081016040528092919081815260200182805461045f90611273565b80156104ac5780601f10610481576101008083540402835291602001916104ac565b820191906000526020600020905b81548152906001019060200180831161048f57829003601f168201915b5050505050908060030180546104c190611273565b80601f01602080910402602001604051908101604052809291908181526020018280546104ed90611273565b801561053a5780601f1061050f5761010080835404028352916020019161053a565b820191906000526020600020905b81548152906001019060200180831161051d57829003601f168201915b5050505050908060040154905085565b600460205280600052604060002060009150905080600001805461056d90611273565b80601f016020809104026020016040519081016040528092919081815260200182805461059990611273565b80156105e65780601f106105bb576101008083540402835291602001916105e6565b820191906000526020600020905b8154815290600101906020018083116105c957829003601f168201915b5050505050908060010180546105fb90611273565b80601f016020809104026020016040519081016040528092919081815260200182805461062790611273565b80156106745780601f1061064957610100808354040283529160200191610674565b820191906000526020600020905b81548152906001019060200180831161065757829003601f168201915b50505050509080600201805461068990611273565b80601f01602080910402602001604051908101604052809291908181526020018280546106b590611273565b80156107025780601f106106d757610100808354040283529160200191610702565b820191906000526020600020905b8154815290600101906020018083116106e557829003601f168201915b50505050509080600301805461071790611273565b80601f016020809104026020016040519081016040528092919081815260200182805461074390611273565b80156107905780601f1061076557610100808354040283529160200191610790565b820191906000526020600020905b81548152906001019060200180831161077357829003601f168201915b5050505050908060040180546107a590611273565b80601f01602080910402602001604051908101604052809291908181526020018280546107d190611273565b801561081e5780601f106107f35761010080835404028352916020019161081e565b820191906000526020600020905b81548152906001019060200180831161080157829003601f168201915b5050505050908060050160009054906101000a900473ffffffffffffffffffffffffffffffffffffffff16905086565b60008054906101000a900473ffffffffffffffffffffffffffffffffffffffff1681565b60055481565b60016020528060005260406000206000915054906101000a900460ff1681565b60008054906101000a900473ffffffffffffffffffffffffffffffffffffffff1673ffffffffffffffffffffffffffffffffffffffff163373ffffffffffffffffffffffffffffffffffffffff1614610926576040517f08c379a000000000000000000000000000000000000000000000000000000000815260040161091d90611316565b60405180910390fd5b60036000815480929190610939906111fc565b91905055506040518060a001604052806003548152602001848152602001838152602001828152602001600081525060026000600354815260200190815260200160002060008201518160000155602082015181600101908161099c91906114e2565b5060408201518160020190816109b291906114e2565b5060608201518160030190816109c891906114e2565b5060808201518160040155905050505050565b600560008154809291906109ee906111fc565b91905055506040518060c001604052808681526020018581526020018481526020018381526020018281526020013373ffffffffffffffffffffffffffffffffffffffff168152506004600060055481526020019081526020016000206000820151816000019081610a6091906114e2565b506020820151816001019081610a7691906114e2565b506040820151816002019081610a8c91906114e2565b506060820151816003019081610aa291906114e2565b506080820151816004019081610ab891906114e2565b5060a08201518160050160006101000a81548173ffffffffffffffffffffffffffffffffffffffff021916908373ffffffffffffffffffffffffffffffffffffffff1602179055509050505050505050565b6000604051905090565b600080fd5b600080fd5b6000819050919050565b610b3181610b1e565b8114610b3c57600080fd5b50565b600081359050610b4e81610b28565b92915050565b600060208284031215610b6a57610b69610b14565b5b6000610b7884828501610b3f565b91505092915050565b610b8a81610b1e565b82525050565b6000602082019050610ba56000830184610b81565b92915050565b600081519050919050565b600082825260208201905092915050565b60005b83811015610be5578082015181840152602081019050610bca565b60008484015250505050565b6000601f19601f8301169050919050565b6000610c0d82610bab565b610c178185610bb6565b9350610c27818560208601610bc7565b610c3081610bf1565b840191505092915050565b600060a082019050610c506000830188610b81565b8181036020830152610c628187610c02565b90508181036040830152610c768186610c02565b90508181036060830152610c8a8185610c02565b9050610c996080830184610b81565b9695505050505050565b600073ffffffffffffffffffffffffffffffffffffffff82169050919050565b6000610cce82610ca3565b9050919050565b610cde81610cc3565b82525050565b600060c0820190508181036000830152610cfe8189610c02565b90508181036020830152610d128188610c02565b90508181036040830152610d268187610c02565b90508181036060830152610d3a8186610c02565b90508181036080830152610d4e8185610c02565b9050610d5d60a0830184610cd5565b979650505050505050565b6000602082019050610d7d6000830184610cd5565b92915050565b610d8c81610cc3565b8114610d9757600080fd5b50565b600081359050610da981610d83565b92915050565b600060208284031215610dc557610dc4610b14565b5b6000610dd384828501610d9a565b91505092915050565b60008115159050919050565b610df181610ddc565b82525050565b6000602082019050610e0c6000830184610de8565b92915050565b600080fd5b600080fd5b7f4e487b7100000000000000000000000000000000000000000000000000000000600052604160045260246000fd5b610e5482610bf1565b810181811067ffffffffffffffff82111715610e7357610e72610e1c565b5b80604052505050565b6000610e86610b0a565b9050610e928282610e4b565b919050565b600067ffffffffffffffff821115610eb257610eb1610e1c565b5b610ebb82610bf1565b9050602081019050919050565b82818337600083830152505050565b6000610eea610ee584610e97565b610e7c565b905082815260208101848484011115610f0657610f05610e17565b5b610f11848285610ec8565b509392505050565b600082601f830112610f2e57610f2d610e12565b5b8135610f3e848260208601610ed7565b91505092915050565b600080600060608486031215610f6057610f5f610b14565b5b600084013567ffffffffffffffff811115610f7e57610f7d610b19565b5b610f8a86828701610f19565b935050602084013567ffffffffffffffff811115610fab57610faa610b19565b5b610fb786828701610f19565b925050604084013567ffffffffffffffff811115610fd857610fd7610b19565b5b610fe486828701610f19565b9150509250925092565b600080600080600060a0868803121561100a57611009610b14565b5b600086013567ffffffffffffffff81111561102857611027610b19565b5b61103488828901610f19565b955050602086013567ffffffffffffffff81111561105557611054610b19565b5b61106188828901610f19565b945050604086013567ffffffffffffffff81111561108257611081610b19565b5b61108e88828901610f19565b935050606086013567ffffffffffffffff8111156110af576110ae610b19565b5b6110bb88828901610f19565b925050608086013567ffffffffffffffff8111156110dc576110db610b19565b5b6110e888828901610f19565b9150509295509295909350565b7f596f75206861766520616c726561647920766f7465642e000000000000000000600082015250565b600061112b601783610bb6565b9150611136826110f5565b602082019050919050565b6000602082019050818103600083015261115a8161111e565b9050919050565b7f496e76616c69642063616e6469646174652049442e0000000000000000000000600082015250565b6000611197601583610bb6565b91506111a282611161565b602082019050919050565b600060208201905081810360008301526111c68161118a565b9050919050565b7f4e487b7100000000000000000000000000000000000000000000000000000000600052601160045260246000fd5b600061120782610b1e565b91507fffffffffffffffffffffffffffffffffffffffffffffffffffffffffffffffff8203611239576112386111cd565b5b600182019050919050565b7f4e487b7100000000000000000000000000000000000000000000000000000000600052602260045260246000fd5b6000600282049050600182168061128b57607f821691505b60208210810361129e5761129d611244565b5b50919050565b7f4163636573732064656e6965642e204f6e6c79206d616e616765722063616e2060008201527f706572666f726d207468697320616374696f6e2e000000000000000000000000602082015250565b6000611300603483610bb6565b915061130b826112a4565b604082019050919050565b6000602082019050818103600083015261132f816112f3565b9050919050565b60008190508160005260206000209050919050565b60006020601f8301049050919050565b600082821b905092915050565b6000600883026113987fffffffffffffffffffffffffffffffffffffffffffffffffffffffffffffffff8261135b565b6113a2868361135b565b95508019841693508086168417925050509392505050565b6000819050919050565b60006113df6113da6113d584610b1e565b6113ba565b610b1e565b9050919050565b6000819050919050565b6113f9836113c4565b61140d611405826113e6565b848454611368565b825550505050565b600090565b611422611415565b61142d8184846113f0565b505050565b5b818110156114515761144660008261141a565b600181019050611433565b5050565b601f8211156114965761146781611336565b6114708461134b565b8101602085101561147f578190505b61149361148b8561134b565b830182611432565b50505b505050565b600082821c905092915050565b60006114b96000198460080261149b565b1980831691505092915050565b60006114d283836114a8565b9150826002028217905092915050565b6114eb82610bab565b67ffffffffffffffff81111561150457611503610e1c565b5b61150e8254611273565b611519828285611455565b600060209050601f83116001811461154c576000841561153a578287015190505b61154485826114c6565b8655506115ac565b601f19841661155a86611336565b60005b828110156115825784890151825560018201915060208501945060208101905061155d565b8683101561159f578489015161159b601f8916826114a8565b8355505b6001600288020188555050505b50505050505056fea2646970667358221220d8b2599bba193af24c289c5bcd866faecb4f80047e383a5b95bd6bb627e047eb64736f6c63430008130033",
  "immutableReferences": {},
  "source": "//SPDX-License-Identifier: MIT\npragma solidity ^0.8.0;\n\ncontract Election {\n\n    address public manager;\n\n    struct Candidate {\n        uint id;\n        string CfirstName;\n        string ClastName;\n        string CidNumber;\n        uint voteCount;\n    }\n\n    mapping (address => bool) public voters;\n\n    mapping (uint => Candidate) public candidates;\n\n    uint public candidatesCount;\n\n    event votedEvent (\n        uint indexed candidateId\n    );\n\n\n    constructor () {\n        manager = msg.sender;\n    }\n\n    function addCandidate (string memory _CfirstName, string memory _ClastName, string memory _CidNumber) public restricted {\n        candidatesCount++;\n        candidates[candidatesCount] = Candidate(candidatesCount, _CfirstName, _ClastName, _CidNumber, 0);\n    }\n\n    modifier restricted () {\n        require(msg.sender == manager, \"Access denied. Only manager can perform this action.\");\n        _;\n    }\n\n\n    function vote (uint _candidateId) public {\n        require(!voters[msg.sender], \"You have already voted.\");\n\n        require(_candidateId > 0 && _candidateId <= candidatesCount, \"Invalid candidate ID.\");\n\n        voters[msg.sender] = true;\n\n        candidates[_candidateId].voteCount++;\n\n        uint candidateId = _candidateId;\n\n        emit votedEvent(_candidateId);\n    }\n\n    // Users\n    // Register\n    struct User {\n        string firstName;\n        string lastName;\n        string idNumber;\n        string email;\n        string password;\n        address add;\n    }\n\n    mapping (uint => User) public users;\n\n    uint public usersCount;\n\n    function addUser (string memory _firstName, string memory _lastName, string memory _idNumber, string memory _email, string memory _password) public {\n        usersCount++;\n        users[usersCount] = User(_firstName, _lastName, _idNumber, _email, _password, msg.sender);\n    }\n\n}\n",
  "sourcePath": "/home/dia-camp/Dev/Blockchain_voting-system/contracts/Election.sol",
  "compiler": {
    "name": "solc",
    "version": "0.8.19+commit.7dd6d404.Emscripten.clang"
  },
  "schemaVersion": "3.4.13",
  "updatedAt": "2023-05-23T18:36:10.118Z",
  "networkType": "ethereum",
  "devdoc": {
    "kind": "dev",
    "methods": {},
    "version": 1
  },
  "userdoc": {
    "kind": "user",
    "methods": {},
    "version": 1
  }
}